{
  "contractName": "AMF",
  "abi": [
    {
      "inputs": [
        {
          "internalType": "string",
          "name": "name_",
          "type": "string"
        },
        {
          "internalType": "string",
          "name": "symbol_",
          "type": "string"
        }
      ],
      "stateMutability": "nonpayable",
      "type": "constructor"
    },
    {
      "anonymous": false,
      "inputs": [
        {
          "indexed": true,
          "internalType": "address",
          "name": "owner",
          "type": "address"
        },
        {
          "indexed": true,
          "internalType": "address",
          "name": "spender",
          "type": "address"
        },
        {
          "indexed": false,
          "internalType": "uint256",
          "name": "value",
          "type": "uint256"
        }
      ],
      "name": "Approval",
      "type": "event"
    },
    {
      "anonymous": false,
      "inputs": [
        {
          "indexed": true,
          "internalType": "address",
          "name": "customer",
          "type": "address"
        },
        {
          "indexed": false,
          "internalType": "string",
          "name": "userBtcAddress",
          "type": "string"
        },
        {
          "indexed": false,
          "internalType": "uint256",
          "name": "sentToken",
          "type": "uint256"
        }
      ],
      "name": "BtcToBePaid",
      "type": "event"
    },
    {
      "anonymous": false,
      "inputs": [
        {
          "indexed": true,
          "internalType": "address",
          "name": "previousOwner",
          "type": "address"
        },
        {
          "indexed": true,
          "internalType": "address",
          "name": "newOwner",
          "type": "address"
        }
      ],
      "name": "OwnershipTransferred",
      "type": "event"
    },
    {
      "anonymous": false,
      "inputs": [
        {
          "indexed": true,
          "internalType": "bytes32",
          "name": "ethTxId",
          "type": "bytes32"
        },
        {
          "indexed": false,
          "internalType": "address",
          "name": "customer",
          "type": "address"
        },
        {
          "indexed": false,
          "internalType": "uint256",
          "name": "btcAmount",
          "type": "uint256"
        },
        {
          "indexed": false,
          "internalType": "uint256",
          "name": "btcToAmfRatio",
          "type": "uint256"
        }
      ],
      "name": "PaidBTC",
      "type": "event"
    },
    {
      "anonymous": false,
      "inputs": [
        {
          "indexed": true,
          "internalType": "bytes32",
          "name": "btcTxId",
          "type": "bytes32"
        },
        {
          "indexed": true,
          "internalType": "address",
          "name": "userEthAddress",
          "type": "address"
        },
        {
          "indexed": false,
          "internalType": "uint256",
          "name": "tokenAmount",
          "type": "uint256"
        },
        {
          "indexed": false,
          "internalType": "uint256",
          "name": "btcToAmfRatio",
          "type": "uint256"
        }
      ],
      "name": "PaidToken",
      "type": "event"
    },
    {
      "anonymous": false,
      "inputs": [
        {
          "indexed": true,
          "internalType": "address",
          "name": "from",
          "type": "address"
        },
        {
          "indexed": true,
          "internalType": "address",
          "name": "to",
          "type": "address"
        },
        {
          "indexed": false,
          "internalType": "uint256",
          "name": "value",
          "type": "uint256"
        }
      ],
      "name": "Transfer",
      "type": "event"
    },
    {
      "inputs": [
        {
          "internalType": "address",
          "name": "owner",
          "type": "address"
        },
        {
          "internalType": "address",
          "name": "spender",
          "type": "address"
        }
      ],
      "name": "allowance",
      "outputs": [
        {
          "internalType": "uint256",
          "name": "",
          "type": "uint256"
        }
      ],
      "stateMutability": "view",
      "type": "function"
    },
    {
      "inputs": [
        {
          "internalType": "address",
          "name": "spender",
          "type": "address"
        },
        {
          "internalType": "uint256",
          "name": "amount",
          "type": "uint256"
        }
      ],
      "name": "approve",
      "outputs": [
        {
          "internalType": "bool",
          "name": "",
          "type": "bool"
        }
      ],
      "stateMutability": "nonpayable",
      "type": "function"
    },
    {
      "inputs": [
        {
          "internalType": "address",
          "name": "account",
          "type": "address"
        }
      ],
      "name": "balanceOf",
      "outputs": [
        {
          "internalType": "uint256",
          "name": "",
          "type": "uint256"
        }
      ],
      "stateMutability": "view",
      "type": "function"
    },
    {
      "inputs": [],
      "name": "decimals",
      "outputs": [
        {
          "internalType": "uint8",
          "name": "",
          "type": "uint8"
        }
      ],
      "stateMutability": "view",
      "type": "function"
    },
    {
      "inputs": [
        {
          "internalType": "address",
          "name": "spender",
          "type": "address"
        },
        {
          "internalType": "uint256",
          "name": "subtractedValue",
          "type": "uint256"
        }
      ],
      "name": "decreaseAllowance",
      "outputs": [
        {
          "internalType": "bool",
          "name": "",
          "type": "bool"
        }
      ],
      "stateMutability": "nonpayable",
      "type": "function"
    },
    {
      "inputs": [
        {
          "internalType": "address",
          "name": "spender",
          "type": "address"
        },
        {
          "internalType": "uint256",
          "name": "addedValue",
          "type": "uint256"
        }
      ],
      "name": "increaseAllowance",
      "outputs": [
        {
          "internalType": "bool",
          "name": "",
          "type": "bool"
        }
      ],
      "stateMutability": "nonpayable",
      "type": "function"
    },
    {
      "inputs": [],
      "name": "name",
      "outputs": [
        {
          "internalType": "string",
          "name": "",
          "type": "string"
        }
      ],
      "stateMutability": "view",
      "type": "function"
    },
    {
      "inputs": [],
      "name": "owner",
      "outputs": [
        {
          "internalType": "address",
          "name": "",
          "type": "address"
        }
      ],
      "stateMutability": "view",
      "type": "function"
    },
    {
      "inputs": [],
      "name": "renounceOwnership",
      "outputs": [],
      "stateMutability": "nonpayable",
      "type": "function"
    },
    {
      "inputs": [],
      "name": "symbol",
      "outputs": [
        {
          "internalType": "string",
          "name": "",
          "type": "string"
        }
      ],
      "stateMutability": "view",
      "type": "function"
    },
    {
      "inputs": [],
      "name": "totalSupply",
      "outputs": [
        {
          "internalType": "uint256",
          "name": "",
          "type": "uint256"
        }
      ],
      "stateMutability": "view",
      "type": "function"
    },
    {
      "inputs": [
        {
          "internalType": "address",
          "name": "recipient",
          "type": "address"
        },
        {
          "internalType": "uint256",
          "name": "amount",
          "type": "uint256"
        }
      ],
      "name": "transfer",
      "outputs": [
        {
          "internalType": "bool",
          "name": "",
          "type": "bool"
        }
      ],
      "stateMutability": "nonpayable",
      "type": "function"
    },
    {
      "inputs": [
        {
          "internalType": "address",
          "name": "sender",
          "type": "address"
        },
        {
          "internalType": "address",
          "name": "recipient",
          "type": "address"
        },
        {
          "internalType": "uint256",
          "name": "amount",
          "type": "uint256"
        }
      ],
      "name": "transferFrom",
      "outputs": [
        {
          "internalType": "bool",
          "name": "",
          "type": "bool"
        }
      ],
      "stateMutability": "nonpayable",
      "type": "function"
    },
    {
      "inputs": [
        {
          "internalType": "address",
          "name": "newOwner",
          "type": "address"
        }
      ],
      "name": "transferOwnership",
      "outputs": [],
      "stateMutability": "nonpayable",
      "type": "function"
    },
    {
      "inputs": [
        {
          "internalType": "address",
          "name": "newHolder",
          "type": "address"
        },
        {
          "internalType": "uint256",
          "name": "amount",
          "type": "uint256"
        }
      ],
      "name": "mint",
      "outputs": [
        {
          "internalType": "uint256",
          "name": "",
          "type": "uint256"
        }
      ],
      "stateMutability": "nonpayable",
      "type": "function"
    },
    {
      "inputs": [
        {
          "internalType": "uint256",
          "name": "amount",
          "type": "uint256"
        }
      ],
      "name": "burn",
      "outputs": [
        {
          "internalType": "bool",
          "name": "",
          "type": "bool"
        }
      ],
      "stateMutability": "nonpayable",
      "type": "function"
    },
    {
      "inputs": [],
      "name": "getBtcToAmfRatio",
      "outputs": [
        {
          "internalType": "uint256",
          "name": "",
          "type": "uint256"
        }
      ],
      "stateMutability": "view",
      "type": "function"
    },
    {
      "inputs": [
        {
          "internalType": "uint256",
          "name": "newRatio",
          "type": "uint256"
        }
      ],
      "name": "setBtcToAmfRatio",
      "outputs": [
        {
          "internalType": "bool",
          "name": "",
          "type": "bool"
        }
      ],
      "stateMutability": "nonpayable",
      "type": "function"
    },
    {
      "inputs": [
        {
          "internalType": "bytes32",
          "name": "btcTxId",
          "type": "bytes32"
        },
        {
          "internalType": "address",
          "name": "userEthAddress",
          "type": "address"
        },
        {
          "internalType": "uint256",
          "name": "tokenAmount",
          "type": "uint256"
        }
      ],
      "name": "tokenDelivery",
      "outputs": [
        {
          "internalType": "bool",
          "name": "",
          "type": "bool"
        }
      ],
      "stateMutability": "nonpayable",
      "type": "function"
    },
    {
      "inputs": [
        {
          "internalType": "uint256",
          "name": "tokenAmount",
          "type": "uint256"
        },
        {
          "internalType": "string",
          "name": "userBtcAddress",
          "type": "string"
        }
      ],
      "name": "claimBTC",
      "outputs": [
        {
          "internalType": "bool",
          "name": "",
          "type": "bool"
        }
      ],
      "stateMutability": "nonpayable",
      "type": "function"
    },
    {
      "inputs": [
        {
          "internalType": "bytes32",
          "name": "ethTxId",
          "type": "bytes32"
        },
        {
          "internalType": "address",
          "name": "customer",
          "type": "address"
        },
        {
          "internalType": "uint256",
          "name": "btcAmount",
          "type": "uint256"
        }
      ],
      "name": "btcDelivery",
      "outputs": [
        {
          "internalType": "bool",
          "name": "",
          "type": "bool"
        }
      ],
      "stateMutability": "nonpayable",
      "type": "function"
    }
  ],
  "bytecode": "0x60806040523480156200001157600080fd5b50604051620024e0380380620024e0833981810160405260408110156200003757600080fd5b81019080805160405193929190846401000000008211156200005857600080fd5b838201915060208201858111156200006f57600080fd5b82518660018202830111640100000000821117156200008d57600080fd5b8083526020830192505050908051906020019080838360005b83811015620000c3578082015181840152602081019050620000a6565b50505050905090810190601f168015620000f15780820380516001836020036101000a031916815260200191505b50604052602001805160405193929190846401000000008211156200011557600080fd5b838201915060208201858111156200012c57600080fd5b82518660018202830111640100000000821117156200014a57600080fd5b8083526020830192505050908051906020019080838360005b838110156200018057808201518184015260208101905062000163565b50505050905090810190601f168015620001ae5780820380516001836020036101000a031916815260200191505b5060405250505081818160039080519060200190620001cf929190620002d2565b508060049080519060200190620001e8929190620002d2565b506012600560006101000a81548160ff021916908360ff1602179055505050600062000219620002ca60201b60201c565b905080600560016101000a81548173ffffffffffffffffffffffffffffffffffffffff021916908373ffffffffffffffffffffffffffffffffffffffff1602179055508073ffffffffffffffffffffffffffffffffffffffff16600073ffffffffffffffffffffffffffffffffffffffff167f8be0079c531659141344cd1fd0a4f28419497f9722a3daafe3b4186f6b6457e060405160405180910390a350620186a0600781905550505062000378565b600033905090565b828054600181600116156101000203166002900490600052602060002090601f016020900481019282601f106200031557805160ff191683800117855562000346565b8280016001018555821562000346579182015b828111156200034557825182559160200191906001019062000328565b5b50905062000355919062000359565b5090565b5b80821115620003745760008160009055506001016200035a565b5090565b61215880620003886000396000f3fe608060405234801561001057600080fd5b50600436106101075760003560e01c806306f9c44a1461010c57806306fdde0314610150578063095ea7b3146101d357806318160ddd1461023757806323b872dd14610255578063313ce567146102d957806335d55d66146102fa578063395093511461036857806340c10f19146103cc57806342966c681461042e57806370a0823114610472578063715018a6146104ca5780638da5cb5b146104d457806395d89b41146105085780639cbba32b1461058b578063a457c2d7146105f9578063a9059cbb1461065d578063aa784366146106c1578063b87ef4951461079c578063dd62ed3e146107ba578063f2fde38b14610832575b600080fd5b6101386004803603602081101561012257600080fd5b8101908080359060200190929190505050610876565b60405180821515815260200191505060405180910390f35b610158610937565b6040518080602001828103825283818151815260200191508051906020019080838360005b8381101561019857808201518184015260208101905061017d565b50505050905090810190601f1680156101c55780820380516001836020036101000a031916815260200191505b509250505060405180910390f35b61021f600480360360408110156101e957600080fd5b81019080803573ffffffffffffffffffffffffffffffffffffffff169060200190929190803590602001909291905050506109d9565b60405180821515815260200191505060405180910390f35b61023f6109f7565b6040518082815260200191505060405180910390f35b6102c16004803603606081101561026b57600080fd5b81019080803573ffffffffffffffffffffffffffffffffffffffff169060200190929190803573ffffffffffffffffffffffffffffffffffffffff16906020019092919080359060200190929190505050610a01565b60405180821515815260200191505060405180910390f35b6102e1610ada565b604051808260ff16815260200191505060405180910390f35b6103506004803603606081101561031057600080fd5b8101908080359060200190929190803573ffffffffffffffffffffffffffffffffffffffff16906020019092919080359060200190929190505050610af1565b60405180821515815260200191505060405180910390f35b6103b46004803603604081101561037e57600080fd5b81019080803573ffffffffffffffffffffffffffffffffffffffff16906020019092919080359060200190929190505050610c18565b60405180821515815260200191505060405180910390f35b610418600480360360408110156103e257600080fd5b81019080803573ffffffffffffffffffffffffffffffffffffffff16906020019092919080359060200190929190505050610ccb565b6040518082815260200191505060405180910390f35b61045a6004803603602081101561044457600080fd5b8101908080359060200190929190505050610d8f565b60405180821515815260200191505060405180910390f35b6104b46004803603602081101561048857600080fd5b81019080803573ffffffffffffffffffffffffffffffffffffffff169060200190929190505050610dab565b6040518082815260200191505060405180910390f35b6104d2610df3565b005b6104dc610f63565b604051808273ffffffffffffffffffffffffffffffffffffffff16815260200191505060405180910390f35b610510610f8d565b6040518080602001828103825283818151815260200191508051906020019080838360005b83811015610550578082015181840152602081019050610535565b50505050905090810190601f16801561057d5780820380516001836020036101000a031916815260200191505b509250505060405180910390f35b6105e1600480360360608110156105a157600080fd5b8101908080359060200190929190803573ffffffffffffffffffffffffffffffffffffffff1690602001909291908035906020019092919050505061102f565b60405180821515815260200191505060405180910390f35b6106456004803603604081101561060f57600080fd5b81019080803573ffffffffffffffffffffffffffffffffffffffff1690602001909291908035906020019092919050505061114b565b60405180821515815260200191505060405180910390f35b6106a96004803603604081101561067357600080fd5b81019080803573ffffffffffffffffffffffffffffffffffffffff16906020019092919080359060200190929190505050611218565b60405180821515815260200191505060405180910390f35b610784600480360360408110156106d757600080fd5b8101908080359060200190929190803590602001906401000000008111156106fe57600080fd5b82018360208201111561071057600080fd5b8035906020019184600183028401116401000000008311171561073257600080fd5b91908080601f016020809104026020016040519081016040528093929190818152602001838380828437600081840152601f19601f820116905080830192505050505050509192919290505050611236565b60405180821515815260200191505060405180910390f35b6107a461131d565b6040518082815260200191505060405180910390f35b61081c600480360360408110156107d057600080fd5b81019080803573ffffffffffffffffffffffffffffffffffffffff169060200190929190803573ffffffffffffffffffffffffffffffffffffffff169060200190929190505050611327565b6040518082815260200191505060405180910390f35b6108746004803603602081101561084857600080fd5b81019080803573ffffffffffffffffffffffffffffffffffffffff1690602001909291905050506113ae565b005b60006108806115a3565b73ffffffffffffffffffffffffffffffffffffffff1661089e610f63565b73ffffffffffffffffffffffffffffffffffffffff1614610927576040517f08c379a00000000000000000000000000000000000000000000000000000000081526004018080602001828103825260208152602001807f4f776e61626c653a2063616c6c6572206973206e6f7420746865206f776e657281525060200191505060405180910390fd5b8160078190555060019050919050565b606060038054600181600116156101000203166002900480601f0160208091040260200160405190810160405280929190818152602001828054600181600116156101000203166002900480156109cf5780601f106109a4576101008083540402835291602001916109cf565b820191906000526020600020905b8154815290600101906020018083116109b257829003601f168201915b5050505050905090565b60006109ed6109e66115a3565b84846115ab565b6001905092915050565b6000600254905090565b6000610a0e8484846117a2565b610acf84610a1a6115a3565b610aca8560405180606001604052806028815260200161206c60289139600160008b73ffffffffffffffffffffffffffffffffffffffff1673ffffffffffffffffffffffffffffffffffffffff1681526020019081526020016000206000610a806115a3565b73ffffffffffffffffffffffffffffffffffffffff1673ffffffffffffffffffffffffffffffffffffffff16815260200190815260200160002054611a639092919063ffffffff16565b6115ab565b600190509392505050565b6000600560009054906101000a900460ff16905090565b6000610afb6115a3565b73ffffffffffffffffffffffffffffffffffffffff16610b19610f63565b73ffffffffffffffffffffffffffffffffffffffff1614610ba2576040517f08c379a00000000000000000000000000000000000000000000000000000000081526004018080602001828103825260208152602001807f4f776e61626c653a2063616c6c6572206973206e6f7420746865206f776e657281525060200191505060405180910390fd5b610bb4610bad6115a3565b84846117a2565b8273ffffffffffffffffffffffffffffffffffffffff16847fb4d3d3ab5256bd320e9b608e7d72573849b006e85edb07e0380129159df366f084600754604051808381526020018281526020019250505060405180910390a3600190509392505050565b6000610cc1610c256115a3565b84610cbc8560016000610c366115a3565b73ffffffffffffffffffffffffffffffffffffffff1673ffffffffffffffffffffffffffffffffffffffff16815260200190815260200160002060008973ffffffffffffffffffffffffffffffffffffffff1673ffffffffffffffffffffffffffffffffffffffff16815260200190815260200160002054611b1d90919063ffffffff16565b6115ab565b6001905092915050565b6000610cd56115a3565b73ffffffffffffffffffffffffffffffffffffffff16610cf3610f63565b73ffffffffffffffffffffffffffffffffffffffff1614610d7c576040517f08c379a00000000000000000000000000000000000000000000000000000000081526004018080602001828103825260208152602001807f4f776e61626c653a2063616c6c6572206973206e6f7420746865206f776e657281525060200191505060405180910390fd5b610d868383611ba5565b81905092915050565b6000610da2610d9c6115a3565b83611d6c565b60019050919050565b60008060008373ffffffffffffffffffffffffffffffffffffffff1673ffffffffffffffffffffffffffffffffffffffff168152602001908152602001600020549050919050565b610dfb6115a3565b73ffffffffffffffffffffffffffffffffffffffff16610e19610f63565b73ffffffffffffffffffffffffffffffffffffffff1614610ea2576040517f08c379a00000000000000000000000000000000000000000000000000000000081526004018080602001828103825260208152602001807f4f776e61626c653a2063616c6c6572206973206e6f7420746865206f776e657281525060200191505060405180910390fd5b600073ffffffffffffffffffffffffffffffffffffffff16600560019054906101000a900473ffffffffffffffffffffffffffffffffffffffff1673ffffffffffffffffffffffffffffffffffffffff167f8be0079c531659141344cd1fd0a4f28419497f9722a3daafe3b4186f6b6457e060405160405180910390a36000600560016101000a81548173ffffffffffffffffffffffffffffffffffffffff021916908373ffffffffffffffffffffffffffffffffffffffff160217905550565b6000600560019054906101000a900473ffffffffffffffffffffffffffffffffffffffff16905090565b606060048054600181600116156101000203166002900480601f0160208091040260200160405190810160405280929190818152602001828054600181600116156101000203166002900480156110255780601f10610ffa57610100808354040283529160200191611025565b820191906000526020600020905b81548152906001019060200180831161100857829003601f168201915b5050505050905090565b60006110396115a3565b73ffffffffffffffffffffffffffffffffffffffff16611057610f63565b73ffffffffffffffffffffffffffffffffffffffff16146110e0576040517f08c379a00000000000000000000000000000000000000000000000000000000081526004018080602001828103825260208152602001807f4f776e61626c653a2063616c6c6572206973206e6f7420746865206f776e657281525060200191505060405180910390fd5b837f6a3299a544c3d481c2cce4d35d1d64d608518f67ee809c85679ee2a8d0e2b6b08484600754604051808473ffffffffffffffffffffffffffffffffffffffff168152602001838152602001828152602001935050505060405180910390a2600190509392505050565b600061120e6111586115a3565b84611209856040518060600160405280602581526020016120fe60259139600160006111826115a3565b73ffffffffffffffffffffffffffffffffffffffff1673ffffffffffffffffffffffffffffffffffffffff16815260200190815260200160002060008a73ffffffffffffffffffffffffffffffffffffffff1673ffffffffffffffffffffffffffffffffffffffff16815260200190815260200160002054611a639092919063ffffffff16565b6115ab565b6001905092915050565b600061122c6112256115a3565b84846117a2565b6001905092915050565b60006112516112436115a3565b61124b610f63565b856117a2565b6112596115a3565b73ffffffffffffffffffffffffffffffffffffffff167f57a2da10e578fdce2482690a77eb65471abdc36ee3abdea43b2cb43b0d7486bd83856040518080602001838152602001828103825284818151815260200191508051906020019080838360005b838110156112d85780820151818401526020810190506112bd565b50505050905090810190601f1680156113055780820380516001836020036101000a031916815260200191505b50935050505060405180910390a26001905092915050565b6000600754905090565b6000600160008473ffffffffffffffffffffffffffffffffffffffff1673ffffffffffffffffffffffffffffffffffffffff16815260200190815260200160002060008373ffffffffffffffffffffffffffffffffffffffff1673ffffffffffffffffffffffffffffffffffffffff16815260200190815260200160002054905092915050565b6113b66115a3565b73ffffffffffffffffffffffffffffffffffffffff166113d4610f63565b73ffffffffffffffffffffffffffffffffffffffff161461145d576040517f08c379a00000000000000000000000000000000000000000000000000000000081526004018080602001828103825260208152602001807f4f776e61626c653a2063616c6c6572206973206e6f7420746865206f776e657281525060200191505060405180910390fd5b600073ffffffffffffffffffffffffffffffffffffffff168173ffffffffffffffffffffffffffffffffffffffff1614156114e3576040517f08c379a0000000000000000000000000000000000000000000000000000000008152600401808060200182810382526026815260200180611ffe6026913960400191505060405180910390fd5b8073ffffffffffffffffffffffffffffffffffffffff16600560019054906101000a900473ffffffffffffffffffffffffffffffffffffffff1673ffffffffffffffffffffffffffffffffffffffff167f8be0079c531659141344cd1fd0a4f28419497f9722a3daafe3b4186f6b6457e060405160405180910390a380600560016101000a81548173ffffffffffffffffffffffffffffffffffffffff021916908373ffffffffffffffffffffffffffffffffffffffff16021790555050565b600033905090565b600073ffffffffffffffffffffffffffffffffffffffff168373ffffffffffffffffffffffffffffffffffffffff161415611631576040517f08c379a00000000000000000000000000000000000000000000000000000000081526004018080602001828103825260248152602001806120da6024913960400191505060405180910390fd5b600073ffffffffffffffffffffffffffffffffffffffff168273ffffffffffffffffffffffffffffffffffffffff1614156116b7576040517f08c379a00000000000000000000000000000000000000000000000000000000081526004018080602001828103825260228152602001806120246022913960400191505060405180910390fd5b80600160008573ffffffffffffffffffffffffffffffffffffffff1673ffffffffffffffffffffffffffffffffffffffff16815260200190815260200160002060008473ffffffffffffffffffffffffffffffffffffffff1673ffffffffffffffffffffffffffffffffffffffff168152602001908152602001600020819055508173ffffffffffffffffffffffffffffffffffffffff168373ffffffffffffffffffffffffffffffffffffffff167f8c5be1e5ebec7d5bd14f71427d1e84f3dd0314c0f7b2291e5b200ac8c7c3b925836040518082815260200191505060405180910390a3505050565b600073ffffffffffffffffffffffffffffffffffffffff168373ffffffffffffffffffffffffffffffffffffffff161415611828576040517f08c379a00000000000000000000000000000000000000000000000000000000081526004018080602001828103825260258152602001806120b56025913960400191505060405180910390fd5b600073ffffffffffffffffffffffffffffffffffffffff168273ffffffffffffffffffffffffffffffffffffffff1614156118ae576040517f08c379a0000000000000000000000000000000000000000000000000000000008152600401808060200182810382526023815260200180611fb96023913960400191505060405180910390fd5b6118b9838383611f30565b61192481604051806060016040528060268152602001612046602691396000808773ffffffffffffffffffffffffffffffffffffffff1673ffffffffffffffffffffffffffffffffffffffff16815260200190815260200160002054611a639092919063ffffffff16565b6000808573ffffffffffffffffffffffffffffffffffffffff1673ffffffffffffffffffffffffffffffffffffffff168152602001908152602001600020819055506119b7816000808573ffffffffffffffffffffffffffffffffffffffff1673ffffffffffffffffffffffffffffffffffffffff16815260200190815260200160002054611b1d90919063ffffffff16565b6000808473ffffffffffffffffffffffffffffffffffffffff1673ffffffffffffffffffffffffffffffffffffffff168152602001908152602001600020819055508173ffffffffffffffffffffffffffffffffffffffff168373ffffffffffffffffffffffffffffffffffffffff167fddf252ad1be2c89b69c2b068fc378daa952ba7f163c4a11628f55a4df523b3ef836040518082815260200191505060405180910390a3505050565b6000838311158290611b10576040517f08c379a00000000000000000000000000000000000000000000000000000000081526004018080602001828103825283818151815260200191508051906020019080838360005b83811015611ad5578082015181840152602081019050611aba565b50505050905090810190601f168015611b025780820380516001836020036101000a031916815260200191505b509250505060405180910390fd5b5082840390509392505050565b600080828401905083811015611b9b576040517f08c379a000000000000000000000000000000000000000000000000000000000815260040180806020018281038252601b8152602001807f536166654d6174683a206164646974696f6e206f766572666c6f77000000000081525060200191505060405180910390fd5b8091505092915050565b600073ffffffffffffffffffffffffffffffffffffffff168273ffffffffffffffffffffffffffffffffffffffff161415611c48576040517f08c379a000000000000000000000000000000000000000000000000000000000815260040180806020018281038252601f8152602001807f45524332303a206d696e7420746f20746865207a65726f20616464726573730081525060200191505060405180910390fd5b611c5460008383611f30565b611c6981600254611b1d90919063ffffffff16565b600281905550611cc0816000808573ffffffffffffffffffffffffffffffffffffffff1673ffffffffffffffffffffffffffffffffffffffff16815260200190815260200160002054611b1d90919063ffffffff16565b6000808473ffffffffffffffffffffffffffffffffffffffff1673ffffffffffffffffffffffffffffffffffffffff168152602001908152602001600020819055508173ffffffffffffffffffffffffffffffffffffffff16600073ffffffffffffffffffffffffffffffffffffffff167fddf252ad1be2c89b69c2b068fc378daa952ba7f163c4a11628f55a4df523b3ef836040518082815260200191505060405180910390a35050565b600073ffffffffffffffffffffffffffffffffffffffff168273ffffffffffffffffffffffffffffffffffffffff161415611df2576040517f08c379a00000000000000000000000000000000000000000000000000000000081526004018080602001828103825260218152602001806120946021913960400191505060405180910390fd5b611dfe82600083611f30565b611e6981604051806060016040528060228152602001611fdc602291396000808673ffffffffffffffffffffffffffffffffffffffff1673ffffffffffffffffffffffffffffffffffffffff16815260200190815260200160002054611a639092919063ffffffff16565b6000808473ffffffffffffffffffffffffffffffffffffffff1673ffffffffffffffffffffffffffffffffffffffff16815260200190815260200160002081905550611ec081600254611f3590919063ffffffff16565b600281905550600073ffffffffffffffffffffffffffffffffffffffff168273ffffffffffffffffffffffffffffffffffffffff167fddf252ad1be2c89b69c2b068fc378daa952ba7f163c4a11628f55a4df523b3ef836040518082815260200191505060405180910390a35050565b505050565b600082821115611fad576040517f08c379a000000000000000000000000000000000000000000000000000000000815260040180806020018281038252601e8152602001807f536166654d6174683a207375627472616374696f6e206f766572666c6f77000081525060200191505060405180910390fd5b81830390509291505056fe45524332303a207472616e7366657220746f20746865207a65726f206164647265737345524332303a206275726e20616d6f756e7420657863656564732062616c616e63654f776e61626c653a206e6577206f776e657220697320746865207a65726f206164647265737345524332303a20617070726f766520746f20746865207a65726f206164647265737345524332303a207472616e7366657220616d6f756e7420657863656564732062616c616e636545524332303a207472616e7366657220616d6f756e74206578636565647320616c6c6f77616e636545524332303a206275726e2066726f6d20746865207a65726f206164647265737345524332303a207472616e736665722066726f6d20746865207a65726f206164647265737345524332303a20617070726f76652066726f6d20746865207a65726f206164647265737345524332303a2064656372656173656420616c6c6f77616e63652062656c6f77207a65726fa2646970667358221220d547336b289fe742feb8ccd5174d383baed61251aa304a34900a115ddda3c16164736f6c63430007000033",
  "immutableReferences": {},
  "source": "pragma solidity >=0.7.0 <0.8.0;\n\nimport \"../node_modules/@openzeppelin/contracts/token/ERC20/ERC20.sol\";\nimport \"../node_modules/@openzeppelin/contracts/access/Ownable.sol\";\n\n/**\n * @title AMFEIX ERC20 swap smart contract\n * @dev Contract based on ERC20 standard with \"swap\" features between BTC and AMF\n */\ncontract AMF is ERC20, Ownable {\n\n    using SafeMath for uint256;\n\n    mapping (address => uint256) private _balances;\n\n    uint256 private _BtcToAmfRatio;\n\n    /**\n     * @dev Sets the values for {name} and {symbol}, initializes {decimals} with\n     * a default value of 18.\n     *\n     * All three of these values are immutable: they can only be set once during\n     * construction.\n     */\n    constructor (string memory name_, string memory symbol_) ERC20(name_,symbol_) Ownable() {\n        _BtcToAmfRatio = 100000; // AMF amount for 1 BTC\n    }\n\n    /**\n     * @dev Allows contract owner to create new tokens.\n     * \n     * @param newHolder Ethereum address of the recipient \n     * @param amount The number of tokens the recipient will receive\n     */\n    function mint(address newHolder, uint256 amount) public virtual onlyOwner returns (uint256) {\n        _mint(newHolder, amount);\n        return amount;\n    }\n\n    /**\n     * @dev Allows anyone to destroy its tokens.\n     *\n     * @param amount The number of tokens that sender is willing to burn from its account\n     */\n    function burn(uint256 amount) public virtual returns (bool) {\n        _burn(_msgSender(), amount);\n        return true;\n    }\n\n    /**\n     * @dev Returns the current swap ratio (how much AMF tokens corresponds to 1 BTC)\n     *      \n     * Initial ratio  100000 AMF : 1 BTC  (1 AMF : 1000 sat)\n     * We need this value to compute the amount of AMF to send to users when they deposited BTC at AMFEIX\n     * and to compute the amount of BTC to send to users when they claim back their BTC.\n     */\n    function getBtcToAmfRatio() public view virtual returns (uint256) {\n        return _BtcToAmfRatio;\n    }\n\n    /**\n     * @dev Allows contract owner to update the current swap ratio (AMF/BTC).\n     * \n     * @param newRatio The updated amount of AMF tokens corresponding to 1 BTC (~10^5)\n     */\n    function setBtcToAmfRatio(uint256 newRatio) external virtual onlyOwner returns (bool) {\n        _BtcToAmfRatio = newRatio;\n        return true;\n    }\n\n    /**\n     * @dev Allows contract owner to notify the network that a user who deposited \n     *      BTC at AMFEIX has it ETH wallet funded with the equivalent amount of tokens\n     *\n     * @param btcTxId Transaction ID of the BTC deposit\n     * @param userEthAddress Ethereum address previously provided by user through an OP_RETURN on bitcoin\n     * @param tokenAmount Amount of token to deliver to user\n     */\n    function tokenDelivery(bytes32 btcTxId, address userEthAddress, uint256 tokenAmount) public virtual onlyOwner returns (bool) {\n        _transfer(_msgSender(), userEthAddress, tokenAmount);\n        emit PaidToken(btcTxId, userEthAddress, tokenAmount, _BtcToAmfRatio);\n        return true;\n    }\n    // Emitted when AMFEIX tells the network that a specific token claiming/purchase has been processed\n    event PaidToken (\n        bytes32 indexed btcTxId,\n        address indexed userEthAddress,\n        uint256 tokenAmount,\n        uint256 btcToAmfRatio\n    );\n\n    /**\n     * @dev Allow any customer who hold tokens to claim BTC\n     * \n     * @param tokenAmount Amount of tokens to be exchanged (needs to be multiplied by 10^18)\n     * @param userBtcAddress BTC address on which users willing to receive payment\n     * /!\\ gas cost for calling this method : 37kgas /!\\\n     */\n    function claimBTC(uint256 tokenAmount, string memory userBtcAddress) public virtual returns (bool) {\n        _transfer(_msgSender(), owner(), tokenAmount);\n        emit BtcToBePaid(_msgSender(), userBtcAddress, tokenAmount);\n        return true;\n    }\n    // Emitted when an user claim BTC against its tokens\n    event BtcToBePaid (\n        address indexed customer,\n        string userBtcAddress,\n        uint256 sentToken\n    );\n\n    /**\n     * @dev Allows contract owner to notify the network that BTC has been paid to claiming user\n     * \n     * @param ethTxId Transaction ID of the token transfer from user to AMFEIX pool\n     * @param customer Ethereum address of the claiming user\n     * @param btcAmount Amount of BTC paid to claiming user\n     */    \n    function btcDelivery(bytes32 ethTxId, address customer, uint256 btcAmount) public virtual onlyOwner returns (bool) {\n        // AMFEIX needs to check wether an event has already been emitted for this claim\n        emit PaidBTC(ethTxId, customer, btcAmount, _BtcToAmfRatio);\n        return true;\n    }\n    // Emitted when AMFEIX actually paid BTC \n    event PaidBTC (\n        bytes32 indexed ethTxId,\n        address customer,\n        uint256 btcAmount,\n        uint256 btcToAmfRatio\n    );    \n\n}",
  "sourcePath": "/home/kaio/AMFEIX-Token/contracts/AMF.sol",
  "compiler": {
    "name": "solc",
    "version": "0.7.0+commit.9e61f92b.Linux.g++"
  },
  "schemaVersion": "3.3.3",
  "updatedAt": "2021-02-15T16:01:40.491Z",
  "devdoc": {
    "details": "Contract based on ERC20 standard with \"swap\" features between BTC and AMF",
    "kind": "dev",
    "methods": {
      "allowance(address,address)": {
        "details": "See {IERC20-allowance}."
      },
      "approve(address,uint256)": {
        "details": "See {IERC20-approve}. Requirements: - `spender` cannot be the zero address."
      },
      "balanceOf(address)": {
        "details": "See {IERC20-balanceOf}."
      },
      "btcDelivery(bytes32,address,uint256)": {
        "details": "Allows contract owner to notify the network that BTC has been paid to claiming user ",
        "params": {
          "btcAmount": "Amount of BTC paid to claiming user",
          "customer": "Ethereum address of the claiming user",
          "ethTxId": "Transaction ID of the token transfer from user to AMFEIX pool"
        }
      },
      "burn(uint256)": {
        "details": "Allows anyone to destroy its tokens.",
        "params": {
          "amount": "The number of tokens that sender is willing to burn from its account"
        }
      },
      "claimBTC(uint256,string)": {
        "details": "Allow any customer who hold tokens to claim BTC ",
        "params": {
          "tokenAmount": "Amount of tokens to be exchanged (needs to be multiplied by 10^18)",
          "userBtcAddress": "BTC address on which users willing to receive payment /!\\ gas cost for calling this method : 37kgas /!\\"
        }
      },
      "constructor": {
        "details": "Sets the values for {name} and {symbol}, initializes {decimals} with a default value of 18. All three of these values are immutable: they can only be set once during construction."
      },
      "decimals()": {
        "details": "Returns the number of decimals used to get its user representation. For example, if `decimals` equals `2`, a balance of `505` tokens should be displayed to a user as `5,05` (`505 / 10 ** 2`). Tokens usually opt for a value of 18, imitating the relationship between Ether and Wei. This is the value {ERC20} uses, unless {_setupDecimals} is called. NOTE: This information is only used for _display_ purposes: it in no way affects any of the arithmetic of the contract, including {IERC20-balanceOf} and {IERC20-transfer}."
      },
      "decreaseAllowance(address,uint256)": {
        "details": "Atomically decreases the allowance granted to `spender` by the caller. This is an alternative to {approve} that can be used as a mitigation for problems described in {IERC20-approve}. Emits an {Approval} event indicating the updated allowance. Requirements: - `spender` cannot be the zero address. - `spender` must have allowance for the caller of at least `subtractedValue`."
      },
      "getBtcToAmfRatio()": {
        "details": "Returns the current swap ratio (how much AMF tokens corresponds to 1 BTC)       Initial ratio  100000 AMF : 1 BTC  (1 AMF : 1000 sat) We need this value to compute the amount of AMF to send to users when they deposited BTC at AMFEIX and to compute the amount of BTC to send to users when they claim back their BTC."
      },
      "increaseAllowance(address,uint256)": {
        "details": "Atomically increases the allowance granted to `spender` by the caller. This is an alternative to {approve} that can be used as a mitigation for problems described in {IERC20-approve}. Emits an {Approval} event indicating the updated allowance. Requirements: - `spender` cannot be the zero address."
      },
      "mint(address,uint256)": {
        "details": "Allows contract owner to create new tokens. ",
        "params": {
          "amount": "The number of tokens the recipient will receive",
          "newHolder": "Ethereum address of the recipient "
        }
      },
      "name()": {
        "details": "Returns the name of the token."
      },
      "owner()": {
        "details": "Returns the address of the current owner."
      },
      "renounceOwnership()": {
        "details": "Leaves the contract without owner. It will not be possible to call `onlyOwner` functions anymore. Can only be called by the current owner. NOTE: Renouncing ownership will leave the contract without an owner, thereby removing any functionality that is only available to the owner."
      },
      "setBtcToAmfRatio(uint256)": {
        "details": "Allows contract owner to update the current swap ratio (AMF/BTC). ",
        "params": {
          "newRatio": "The updated amount of AMF tokens corresponding to 1 BTC (~10^5)"
        }
      },
      "symbol()": {
        "details": "Returns the symbol of the token, usually a shorter version of the name."
      },
      "tokenDelivery(bytes32,address,uint256)": {
        "details": "Allows contract owner to notify the network that a user who deposited       BTC at AMFEIX has it ETH wallet funded with the equivalent amount of tokens",
        "params": {
          "btcTxId": "Transaction ID of the BTC deposit",
          "tokenAmount": "Amount of token to deliver to user",
          "userEthAddress": "Ethereum address previously provided by user through an OP_RETURN on bitcoin"
        }
      },
      "totalSupply()": {
        "details": "See {IERC20-totalSupply}."
      },
      "transfer(address,uint256)": {
        "details": "See {IERC20-transfer}. Requirements: - `recipient` cannot be the zero address. - the caller must have a balance of at least `amount`."
      },
      "transferFrom(address,address,uint256)": {
        "details": "See {IERC20-transferFrom}. Emits an {Approval} event indicating the updated allowance. This is not required by the EIP. See the note at the beginning of {ERC20}. Requirements: - `sender` and `recipient` cannot be the zero address. - `sender` must have a balance of at least `amount`. - the caller must have allowance for ``sender``'s tokens of at least `amount`."
      },
      "transferOwnership(address)": {
        "details": "Transfers ownership of the contract to a new account (`newOwner`). Can only be called by the current owner."
      }
    },
    "title": "AMFEIX ERC20 swap smart contract",
    "version": 1
  },
  "userdoc": {
    "kind": "user",
    "methods": {},
    "version": 1
  }
}