{
  "contractName": "AMF",
  "abi": [
    {
      "inputs": [
        {
          "internalType": "string",
          "name": "name_",
          "type": "string"
        },
        {
          "internalType": "string",
          "name": "symbol_",
          "type": "string"
        },
        {
          "internalType": "address",
          "name": "tokenPool_",
          "type": "address"
        },
        {
          "internalType": "string",
          "name": "btcPool_",
          "type": "string"
        }
      ],
      "stateMutability": "nonpayable",
      "type": "constructor"
    },
    {
      "anonymous": false,
      "inputs": [
        {
          "indexed": true,
          "internalType": "address",
          "name": "customer",
          "type": "address"
        },
        {
          "indexed": false,
          "internalType": "string",
          "name": "btcTxId",
          "type": "string"
        },
        {
          "indexed": false,
          "internalType": "uint256",
          "name": "sentToken",
          "type": "uint256"
        }
      ],
      "name": "AmfPaid",
      "type": "event"
    },
    {
      "anonymous": false,
      "inputs": [
        {
          "indexed": true,
          "internalType": "address",
          "name": "owner",
          "type": "address"
        },
        {
          "indexed": true,
          "internalType": "address",
          "name": "spender",
          "type": "address"
        },
        {
          "indexed": false,
          "internalType": "uint256",
          "name": "value",
          "type": "uint256"
        }
      ],
      "name": "Approval",
      "type": "event"
    },
    {
      "anonymous": false,
      "inputs": [
        {
          "indexed": true,
          "internalType": "string",
          "name": "newAddress",
          "type": "string"
        }
      ],
      "name": "BtcPoolAddressChanged",
      "type": "event"
    },
    {
      "anonymous": false,
      "inputs": [
        {
          "indexed": true,
          "internalType": "address",
          "name": "customer",
          "type": "address"
        },
        {
          "indexed": false,
          "internalType": "string",
          "name": "userBtcAddress",
          "type": "string"
        },
        {
          "indexed": false,
          "internalType": "uint256",
          "name": "sentToken",
          "type": "uint256"
        }
      ],
      "name": "BtcToBePaid",
      "type": "event"
    },
    {
      "anonymous": false,
      "inputs": [
        {
          "indexed": true,
          "internalType": "uint256",
          "name": "newMinimum",
          "type": "uint256"
        }
      ],
      "name": "MinimumWithdrawalChanged",
      "type": "event"
    },
    {
      "anonymous": false,
      "inputs": [
        {
          "indexed": true,
          "internalType": "address",
          "name": "previousOwner",
          "type": "address"
        },
        {
          "indexed": true,
          "internalType": "address",
          "name": "newOwner",
          "type": "address"
        }
      ],
      "name": "OwnershipTransferred",
      "type": "event"
    },
    {
      "anonymous": false,
      "inputs": [
        {
          "indexed": true,
          "internalType": "uint256",
          "name": "newRatio",
          "type": "uint256"
        }
      ],
      "name": "RatioChanged",
      "type": "event"
    },
    {
      "anonymous": false,
      "inputs": [
        {
          "indexed": true,
          "internalType": "address",
          "name": "newAddress",
          "type": "address"
        }
      ],
      "name": "TokenPoolAddressChanged",
      "type": "event"
    },
    {
      "anonymous": false,
      "inputs": [
        {
          "indexed": true,
          "internalType": "address",
          "name": "from",
          "type": "address"
        },
        {
          "indexed": true,
          "internalType": "address",
          "name": "to",
          "type": "address"
        },
        {
          "indexed": false,
          "internalType": "uint256",
          "name": "value",
          "type": "uint256"
        }
      ],
      "name": "Transfer",
      "type": "event"
    },
    {
      "inputs": [
        {
          "internalType": "address",
          "name": "owner",
          "type": "address"
        },
        {
          "internalType": "address",
          "name": "spender",
          "type": "address"
        }
      ],
      "name": "allowance",
      "outputs": [
        {
          "internalType": "uint256",
          "name": "",
          "type": "uint256"
        }
      ],
      "stateMutability": "view",
      "type": "function",
      "constant": true
    },
    {
      "inputs": [
        {
          "internalType": "address",
          "name": "spender",
          "type": "address"
        },
        {
          "internalType": "uint256",
          "name": "amount",
          "type": "uint256"
        }
      ],
      "name": "approve",
      "outputs": [
        {
          "internalType": "bool",
          "name": "",
          "type": "bool"
        }
      ],
      "stateMutability": "nonpayable",
      "type": "function"
    },
    {
      "inputs": [
        {
          "internalType": "address",
          "name": "account",
          "type": "address"
        }
      ],
      "name": "balanceOf",
      "outputs": [
        {
          "internalType": "uint256",
          "name": "",
          "type": "uint256"
        }
      ],
      "stateMutability": "view",
      "type": "function",
      "constant": true
    },
    {
      "inputs": [],
      "name": "decimals",
      "outputs": [
        {
          "internalType": "uint8",
          "name": "",
          "type": "uint8"
        }
      ],
      "stateMutability": "view",
      "type": "function",
      "constant": true
    },
    {
      "inputs": [
        {
          "internalType": "address",
          "name": "spender",
          "type": "address"
        },
        {
          "internalType": "uint256",
          "name": "subtractedValue",
          "type": "uint256"
        }
      ],
      "name": "decreaseAllowance",
      "outputs": [
        {
          "internalType": "bool",
          "name": "",
          "type": "bool"
        }
      ],
      "stateMutability": "nonpayable",
      "type": "function"
    },
    {
      "inputs": [
        {
          "internalType": "address",
          "name": "spender",
          "type": "address"
        },
        {
          "internalType": "uint256",
          "name": "addedValue",
          "type": "uint256"
        }
      ],
      "name": "increaseAllowance",
      "outputs": [
        {
          "internalType": "bool",
          "name": "",
          "type": "bool"
        }
      ],
      "stateMutability": "nonpayable",
      "type": "function"
    },
    {
      "inputs": [
        {
          "internalType": "address",
          "name": "forwarder",
          "type": "address"
        }
      ],
      "name": "isTrustedForwarder",
      "outputs": [
        {
          "internalType": "bool",
          "name": "",
          "type": "bool"
        }
      ],
      "stateMutability": "view",
      "type": "function",
      "constant": true
    },
    {
      "inputs": [],
      "name": "name",
      "outputs": [
        {
          "internalType": "string",
          "name": "",
          "type": "string"
        }
      ],
      "stateMutability": "view",
      "type": "function",
      "constant": true
    },
    {
      "inputs": [],
      "name": "owner",
      "outputs": [
        {
          "internalType": "address",
          "name": "",
          "type": "address"
        }
      ],
      "stateMutability": "view",
      "type": "function",
      "constant": true
    },
    {
      "inputs": [],
      "name": "renounceOwnership",
      "outputs": [],
      "stateMutability": "nonpayable",
      "type": "function"
    },
    {
      "inputs": [],
      "name": "symbol",
      "outputs": [
        {
          "internalType": "string",
          "name": "",
          "type": "string"
        }
      ],
      "stateMutability": "view",
      "type": "function",
      "constant": true
    },
    {
      "inputs": [],
      "name": "totalSupply",
      "outputs": [
        {
          "internalType": "uint256",
          "name": "",
          "type": "uint256"
        }
      ],
      "stateMutability": "view",
      "type": "function",
      "constant": true
    },
    {
      "inputs": [
        {
          "internalType": "address",
          "name": "recipient",
          "type": "address"
        },
        {
          "internalType": "uint256",
          "name": "amount",
          "type": "uint256"
        }
      ],
      "name": "transfer",
      "outputs": [
        {
          "internalType": "bool",
          "name": "",
          "type": "bool"
        }
      ],
      "stateMutability": "nonpayable",
      "type": "function"
    },
    {
      "inputs": [
        {
          "internalType": "address",
          "name": "sender",
          "type": "address"
        },
        {
          "internalType": "address",
          "name": "recipient",
          "type": "address"
        },
        {
          "internalType": "uint256",
          "name": "amount",
          "type": "uint256"
        }
      ],
      "name": "transferFrom",
      "outputs": [
        {
          "internalType": "bool",
          "name": "",
          "type": "bool"
        }
      ],
      "stateMutability": "nonpayable",
      "type": "function"
    },
    {
      "inputs": [
        {
          "internalType": "address",
          "name": "newOwner",
          "type": "address"
        }
      ],
      "name": "transferOwnership",
      "outputs": [],
      "stateMutability": "nonpayable",
      "type": "function"
    },
    {
      "inputs": [],
      "name": "trustedForwarder",
      "outputs": [
        {
          "internalType": "address",
          "name": "",
          "type": "address"
        }
      ],
      "stateMutability": "view",
      "type": "function",
      "constant": true
    },
    {
      "inputs": [],
      "name": "versionRecipient",
      "outputs": [
        {
          "internalType": "string",
          "name": "",
          "type": "string"
        }
      ],
      "stateMutability": "view",
      "type": "function",
      "constant": true
    },
    {
      "inputs": [
        {
          "internalType": "address",
          "name": "newHolder",
          "type": "address"
        },
        {
          "internalType": "uint256",
          "name": "amount",
          "type": "uint256"
        }
      ],
      "name": "mint",
      "outputs": [
        {
          "internalType": "uint256",
          "name": "",
          "type": "uint256"
        }
      ],
      "stateMutability": "nonpayable",
      "type": "function"
    },
    {
      "inputs": [
        {
          "internalType": "uint256",
          "name": "amount",
          "type": "uint256"
        }
      ],
      "name": "burn",
      "outputs": [
        {
          "internalType": "bool",
          "name": "",
          "type": "bool"
        }
      ],
      "stateMutability": "nonpayable",
      "type": "function"
    },
    {
      "inputs": [],
      "name": "getMinimumWithdrawalAmount",
      "outputs": [
        {
          "internalType": "uint256",
          "name": "",
          "type": "uint256"
        }
      ],
      "stateMutability": "view",
      "type": "function",
      "constant": true
    },
    {
      "inputs": [
        {
          "internalType": "uint256",
          "name": "newMinimum",
          "type": "uint256"
        }
      ],
      "name": "setMinimumWithdrawalAmount",
      "outputs": [
        {
          "internalType": "bool",
          "name": "",
          "type": "bool"
        }
      ],
      "stateMutability": "nonpayable",
      "type": "function"
    },
    {
      "inputs": [],
      "name": "getSwapRatio",
      "outputs": [
        {
          "internalType": "uint256",
          "name": "",
          "type": "uint256"
        }
      ],
      "stateMutability": "view",
      "type": "function",
      "constant": true
    },
    {
      "inputs": [
        {
          "internalType": "uint256",
          "name": "newRatio",
          "type": "uint256"
        }
      ],
      "name": "setSwapRatio",
      "outputs": [
        {
          "internalType": "bool",
          "name": "",
          "type": "bool"
        }
      ],
      "stateMutability": "nonpayable",
      "type": "function"
    },
    {
      "inputs": [],
      "name": "getTokenPoolAddress",
      "outputs": [
        {
          "internalType": "address",
          "name": "",
          "type": "address"
        }
      ],
      "stateMutability": "view",
      "type": "function",
      "constant": true
    },
    {
      "inputs": [
        {
          "internalType": "address",
          "name": "newAddress",
          "type": "address"
        }
      ],
      "name": "setTokenPoolAddress",
      "outputs": [
        {
          "internalType": "bool",
          "name": "",
          "type": "bool"
        }
      ],
      "stateMutability": "nonpayable",
      "type": "function"
    },
    {
      "inputs": [],
      "name": "getBtcPoolAddress",
      "outputs": [
        {
          "internalType": "string",
          "name": "",
          "type": "string"
        }
      ],
      "stateMutability": "view",
      "type": "function",
      "constant": true
    },
    {
      "inputs": [
        {
          "internalType": "string",
          "name": "newAddress",
          "type": "string"
        }
      ],
      "name": "setBtcPoolAddress",
      "outputs": [
        {
          "internalType": "bool",
          "name": "",
          "type": "bool"
        }
      ],
      "stateMutability": "nonpayable",
      "type": "function"
    },
    {
      "inputs": [
        {
          "internalType": "uint256",
          "name": "tokenAmount",
          "type": "uint256"
        },
        {
          "internalType": "string",
          "name": "userBtcAddress",
          "type": "string"
        }
      ],
      "name": "claimBTC",
      "outputs": [
        {
          "internalType": "bool",
          "name": "",
          "type": "bool"
        }
      ],
      "stateMutability": "nonpayable",
      "type": "function"
    },
    {
      "inputs": [
        {
          "internalType": "uint256",
          "name": "tokenAmount",
          "type": "uint256"
        },
        {
          "internalType": "address",
          "name": "userAddress",
          "type": "address"
        },
        {
          "internalType": "string",
          "name": "btcTxId",
          "type": "string"
        }
      ],
      "name": "payAMF",
      "outputs": [
        {
          "internalType": "bool",
          "name": "",
          "type": "bool"
        }
      ],
      "stateMutability": "nonpayable",
      "type": "function"
    },
    {
      "inputs": [
        {
          "internalType": "address",
          "name": "forwarder",
          "type": "address"
        }
      ],
      "name": "setForwarder",
      "outputs": [],
      "stateMutability": "nonpayable",
      "type": "function"
    }
  ],
  "bytecode": "0x60806040526040518060400160405280600581526020017f322e322e30000000000000000000000000000000000000000000000000000000815250600c908051906020019062000051929190620002a1565b503480156200005f57600080fd5b5060405162003355380380620033558339818101604052810190620000859190620003da565b838381600390805190602001906200009f929190620002a1565b508060049080519060200190620000b8929190620002a1565b5050506000620000cd620001e360201b60201c565b905080600560006101000a81548173ffffffffffffffffffffffffffffffffffffffff021916908373ffffffffffffffffffffffffffffffffffffffff1602179055508073ffffffffffffffffffffffffffffffffffffffff16600073ffffffffffffffffffffffffffffffffffffffff167f8be0079c531659141344cd1fd0a4f28419497f9722a3daafe3b4186f6b6457e060405160405180910390a350620186a060088190555081600960006101000a81548173ffffffffffffffffffffffffffffffffffffffff021916908373ffffffffffffffffffffffffffffffffffffffff16021790555080600a9080519060200190620001cf929190620002a1565b506103e8600b819055505050505062000610565b6000620001fa620001ff60201b620016ef1760201c565b905090565b6000601460003690501015801562000224575062000223336200024760201b60201c565b5b156200023a57601436033560601c905062000243565b33905062000244565b5b90565b6000600660009054906101000a900473ffffffffffffffffffffffffffffffffffffffff1673ffffffffffffffffffffffffffffffffffffffff168273ffffffffffffffffffffffffffffffffffffffff16149050919050565b828054620002af9062000562565b90600052602060002090601f016020900481019282620002d357600085556200031f565b82601f10620002ee57805160ff19168380011785556200031f565b828001600101855582156200031f579182015b828111156200031e57825182559160200191906001019062000301565b5b5090506200032e919062000332565b5090565b5b808211156200034d57600081600090555060010162000333565b5090565b6000620003686200036284620004c5565b62000491565b9050828152602081018484840111156200038157600080fd5b6200038e8482856200052c565b509392505050565b600081519050620003a781620005f6565b92915050565b600082601f830112620003bf57600080fd5b8151620003d184826020860162000351565b91505092915050565b60008060008060808587031215620003f157600080fd5b600085015167ffffffffffffffff8111156200040c57600080fd5b6200041a87828801620003ad565b945050602085015167ffffffffffffffff8111156200043857600080fd5b6200044687828801620003ad565b9350506040620004598782880162000396565b925050606085015167ffffffffffffffff8111156200047757600080fd5b6200048587828801620003ad565b91505092959194509250565b6000604051905081810181811067ffffffffffffffff82111715620004bb57620004ba620005c7565b5b8060405250919050565b600067ffffffffffffffff821115620004e357620004e2620005c7565b5b601f19601f8301169050602081019050919050565b600062000505826200050c565b9050919050565b600073ffffffffffffffffffffffffffffffffffffffff82169050919050565b60005b838110156200054c5780820151818401526020810190506200052f565b838111156200055c576000848401525b50505050565b600060028204905060018216806200057b57607f821691505b6020821081141562000592576200059162000598565b5b50919050565b7f4e487b7100000000000000000000000000000000000000000000000000000000600052602260045260246000fd5b7f4e487b7100000000000000000000000000000000000000000000000000000000600052604160045260246000fd5b6200060181620004f8565b81146200060d57600080fd5b50565b612d3580620006206000396000f3fe608060405234801561001057600080fd5b50600436106101da5760003560e01c80637da0a87711610104578063aa784366116100a2578063dd62ed3e11610071578063dd62ed3e146105d1578063f03cb74b14610601578063f2fde38b14610631578063f529e5ca1461064d576101da565b8063aa78436614610537578063b9998a2414610567578063ba2129b114610583578063becb3451146105b3576101da565b80638da5cb5b116100de5780638da5cb5b1461049b57806395d89b41146104b9578063a457c2d7146104d7578063a9059cbb14610507576101da565b80637da0a8771461042f578063801166a11461044d57806388b6c5c21461047d576101da565b80633ad62bd71161017c578063572b6c051161014b578063572b6c05146103955780636e2662b8146103c557806370a08231146103f5578063715018a614610425576101da565b80633ad62bd7146102f957806340c10f191461031757806342966c6814610347578063486ff0cd14610377576101da565b806323b872dd116101b857806323b872dd1461024b578063313ce5671461027b5780633620d3731461029957806339509351146102c9576101da565b806306fdde03146101df578063095ea7b3146101fd57806318160ddd1461022d575b600080fd5b6101e761066b565b6040516101f49190612810565b60405180910390f35b6102176004803603810190610212919061209a565b6106fd565b60405161022491906127f5565b60405180910390f35b61023561071b565b6040516102429190612a22565b60405180910390f35b6102656004803603810190610260919061204b565b610725565b60405161027291906127f5565b60405180910390f35b610283610826565b6040516102909190612a3d565b60405180910390f35b6102b360048036038101906102ae9190612117565b61082f565b6040516102c091906127f5565b60405180910390f35b6102e360048036038101906102de919061209a565b6108ea565b6040516102f091906127f5565b60405180910390f35b610301610996565b60405161030e9190612810565b60405180910390f35b610331600480360381019061032c919061209a565b610a28565b60405161033e9190612a22565b60405180910390f35b610361600480360381019061035c9190612117565b610ab9565b60405161036e91906127f5565b60405180910390f35b61037f610ad5565b60405161038c9190612810565b60405180910390f35b6103af60048036038101906103aa9190611fe6565b610b63565b6040516103bc91906127f5565b60405180910390f35b6103df60048036038101906103da9190612140565b610bbd565b6040516103ec91906127f5565b60405180910390f35b61040f600480360381019061040a9190611fe6565b610cc3565b60405161041c9190612a22565b60405180910390f35b61042d610d0b565b005b610437610e48565b60405161044491906127da565b60405180910390f35b610467600480360381019061046291906120d6565b610e6e565b60405161047491906127f5565b60405180910390f35b610485610f4e565b60405161049291906127da565b60405180910390f35b6104a3610f78565b6040516104b091906127da565b60405180910390f35b6104c1610fa2565b6040516104ce9190612810565b60405180910390f35b6104f160048036038101906104ec919061209a565b611034565b6040516104fe91906127f5565b60405180910390f35b610521600480360381019061051c919061209a565b611128565b60405161052e91906127f5565b60405180910390f35b610551600480360381019061054c91906121a7565b611146565b60405161055e91906127f5565b60405180910390f35b610581600480360381019061057c9190611fe6565b611222565b005b61059d60048036038101906105989190612117565b6112e2565b6040516105aa91906127f5565b60405180910390f35b6105bb61139d565b6040516105c89190612a22565b60405180910390f35b6105eb60048036038101906105e6919061200f565b6113a7565b6040516105f89190612a22565b60405180910390f35b61061b60048036038101906106169190611fe6565b61142e565b60405161062891906127f5565b60405180910390f35b61064b60048036038101906106469190611fe6565b611539565b005b6106556116e5565b6040516106629190612a22565b60405180910390f35b60606003805461067a90612c01565b80601f01602080910402602001604051908101604052809291908181526020018280546106a690612c01565b80156106f35780601f106106c8576101008083540402835291602001916106f3565b820191906000526020600020905b8154815290600101906020018083116106d657829003601f168201915b5050505050905090565b600061071161070a61172b565b848461173a565b6001905092915050565b6000600254905090565b6000610732848484611905565b6000600160008673ffffffffffffffffffffffffffffffffffffffff1673ffffffffffffffffffffffffffffffffffffffff168152602001908152602001600020600061077d61172b565b73ffffffffffffffffffffffffffffffffffffffff1673ffffffffffffffffffffffffffffffffffffffff168152602001908152602001600020549050828110156107fd576040517f08c379a00000000000000000000000000000000000000000000000000000000081526004016107f490612942565b60405180910390fd5b61081a8561080961172b565b85846108159190612b36565b61173a565b60019150509392505050565b60006012905090565b600061083961172b565b73ffffffffffffffffffffffffffffffffffffffff16610857610f78565b73ffffffffffffffffffffffffffffffffffffffff16146108ad576040517f08c379a00000000000000000000000000000000000000000000000000000000081526004016108a490612962565b60405180910390fd5b81600b81905550817f1c0b5d59cecc9b0f3621bb9becf0bc789b39a30cba53596aba207720f92a1caa60405160405180910390a260019050919050565b600061098c6108f761172b565b84846001600061090561172b565b73ffffffffffffffffffffffffffffffffffffffff1673ffffffffffffffffffffffffffffffffffffffff16815260200190815260200160002060008873ffffffffffffffffffffffffffffffffffffffff1673ffffffffffffffffffffffffffffffffffffffff168152602001908152602001600020546109879190612ae0565b61173a565b6001905092915050565b6060600a80546109a590612c01565b80601f01602080910402602001604051908101604052809291908181526020018280546109d190612c01565b8015610a1e5780601f106109f357610100808354040283529160200191610a1e565b820191906000526020600020905b815481529060010190602001808311610a0157829003601f168201915b5050505050905090565b6000610a3261172b565b73ffffffffffffffffffffffffffffffffffffffff16610a50610f78565b73ffffffffffffffffffffffffffffffffffffffff1614610aa6576040517f08c379a0000000000000000000000000000000000000000000000000000000008152600401610a9d90612962565b60405180910390fd5b610ab08383611b84565b81905092915050565b6000610acc610ac661172b565b83611cd8565b60019050919050565b600c8054610ae290612c01565b80601f0160208091040260200160405190810160405280929190818152602001828054610b0e90612c01565b8015610b5b5780601f10610b3057610100808354040283529160200191610b5b565b820191906000526020600020905b815481529060010190602001808311610b3e57829003601f168201915b505050505081565b6000600660009054906101000a900473ffffffffffffffffffffffffffffffffffffffff1673ffffffffffffffffffffffffffffffffffffffff168273ffffffffffffffffffffffffffffffffffffffff16149050919050565b6000600960009054906101000a900473ffffffffffffffffffffffffffffffffffffffff1673ffffffffffffffffffffffffffffffffffffffff16610c0061172b565b73ffffffffffffffffffffffffffffffffffffffff1614610c56576040517f08c379a0000000000000000000000000000000000000000000000000000000008152600401610c4d90612862565b60405180910390fd5b610c68610c6161172b565b8486611905565b8273ffffffffffffffffffffffffffffffffffffffff167f95763f56e04b8aa137bfb71e206bfba87dafe92d7eb96bbd3909c1fc21c41e088386604051610cb0929190612832565b60405180910390a2600190509392505050565b60008060008373ffffffffffffffffffffffffffffffffffffffff1673ffffffffffffffffffffffffffffffffffffffff168152602001908152602001600020549050919050565b610d1361172b565b73ffffffffffffffffffffffffffffffffffffffff16610d31610f78565b73ffffffffffffffffffffffffffffffffffffffff1614610d87576040517f08c379a0000000000000000000000000000000000000000000000000000000008152600401610d7e90612962565b60405180910390fd5b600073ffffffffffffffffffffffffffffffffffffffff16600560009054906101000a900473ffffffffffffffffffffffffffffffffffffffff1673ffffffffffffffffffffffffffffffffffffffff167f8be0079c531659141344cd1fd0a4f28419497f9722a3daafe3b4186f6b6457e060405160405180910390a36000600560006101000a81548173ffffffffffffffffffffffffffffffffffffffff021916908373ffffffffffffffffffffffffffffffffffffffff160217905550565b600660009054906101000a900473ffffffffffffffffffffffffffffffffffffffff1681565b6000610e7861172b565b73ffffffffffffffffffffffffffffffffffffffff16610e96610f78565b73ffffffffffffffffffffffffffffffffffffffff1614610eec576040517f08c379a0000000000000000000000000000000000000000000000000000000008152600401610ee390612962565b60405180910390fd5b81600a9080519060200190610f02929190611eb1565b5081604051610f1191906127c3565b60405180910390207fdbaa75eb327a06f927a3a51694b0af062122012490b7fec799e3d8ba8e2f561160405160405180910390a260019050919050565b6000600960009054906101000a900473ffffffffffffffffffffffffffffffffffffffff16905090565b6000600560009054906101000a900473ffffffffffffffffffffffffffffffffffffffff16905090565b606060048054610fb190612c01565b80601f0160208091040260200160405190810160405280929190818152602001828054610fdd90612c01565b801561102a5780601f10610fff5761010080835404028352916020019161102a565b820191906000526020600020905b81548152906001019060200180831161100d57829003601f168201915b5050505050905090565b6000806001600061104361172b565b73ffffffffffffffffffffffffffffffffffffffff1673ffffffffffffffffffffffffffffffffffffffff16815260200190815260200160002060008573ffffffffffffffffffffffffffffffffffffffff1673ffffffffffffffffffffffffffffffffffffffff16815260200190815260200160002054905082811015611100576040517f08c379a00000000000000000000000000000000000000000000000000000000081526004016110f7906129e2565b60405180910390fd5b61111d61110b61172b565b8585846111189190612b36565b61173a565b600191505092915050565b600061113c61113561172b565b8484611905565b6001905092915050565b6000600b5483101561118d576040517f08c379a000000000000000000000000000000000000000000000000000000000815260040161118490612922565b60405180910390fd5b6111c161119861172b565b600960009054906101000a900473ffffffffffffffffffffffffffffffffffffffff1685611905565b6111c961172b565b73ffffffffffffffffffffffffffffffffffffffff167f57a2da10e578fdce2482690a77eb65471abdc36ee3abdea43b2cb43b0d7486bd8385604051611210929190612832565b60405180910390a26001905092915050565b61122a61172b565b73ffffffffffffffffffffffffffffffffffffffff16611248610f78565b73ffffffffffffffffffffffffffffffffffffffff161461129e576040517f08c379a000000000000000000000000000000000000000000000000000000000815260040161129590612962565b60405180910390fd5b80600660006101000a81548173ffffffffffffffffffffffffffffffffffffffff021916908373ffffffffffffffffffffffffffffffffffffffff16021790555050565b60006112ec61172b565b73ffffffffffffffffffffffffffffffffffffffff1661130a610f78565b73ffffffffffffffffffffffffffffffffffffffff1614611360576040517f08c379a000000000000000000000000000000000000000000000000000000000815260040161135790612962565b60405180910390fd5b81600881905550817fe200219383a2dbe79fad4e1549a81b6057429299f33583641c5fdddcdc0b379760405160405180910390a260019050919050565b6000600854905090565b6000600160008473ffffffffffffffffffffffffffffffffffffffff1673ffffffffffffffffffffffffffffffffffffffff16815260200190815260200160002060008373ffffffffffffffffffffffffffffffffffffffff1673ffffffffffffffffffffffffffffffffffffffff16815260200190815260200160002054905092915050565b600061143861172b565b73ffffffffffffffffffffffffffffffffffffffff16611456610f78565b73ffffffffffffffffffffffffffffffffffffffff16146114ac576040517f08c379a00000000000000000000000000000000000000000000000000000000081526004016114a390612962565b60405180910390fd5b81600960006101000a81548173ffffffffffffffffffffffffffffffffffffffff021916908373ffffffffffffffffffffffffffffffffffffffff1602179055508173ffffffffffffffffffffffffffffffffffffffff167f621a90dc5a329844ef964be25bebe48e4c53aeccd5103828f62d85513330b2f360405160405180910390a260019050919050565b61154161172b565b73ffffffffffffffffffffffffffffffffffffffff1661155f610f78565b73ffffffffffffffffffffffffffffffffffffffff16146115b5576040517f08c379a00000000000000000000000000000000000000000000000000000000081526004016115ac90612962565b60405180910390fd5b600073ffffffffffffffffffffffffffffffffffffffff168173ffffffffffffffffffffffffffffffffffffffff161415611625576040517f08c379a000000000000000000000000000000000000000000000000000000000815260040161161c906128c2565b60405180910390fd5b8073ffffffffffffffffffffffffffffffffffffffff16600560009054906101000a900473ffffffffffffffffffffffffffffffffffffffff1673ffffffffffffffffffffffffffffffffffffffff167f8be0079c531659141344cd1fd0a4f28419497f9722a3daafe3b4186f6b6457e060405160405180910390a380600560006101000a81548173ffffffffffffffffffffffffffffffffffffffff021916908373ffffffffffffffffffffffffffffffffffffffff16021790555050565b6000600b54905090565b6000601460003690501015801561170b575061170a33610b63565b5b1561171f57601436033560601c9050611727565b339050611728565b5b90565b60006117356116ef565b905090565b600073ffffffffffffffffffffffffffffffffffffffff168373ffffffffffffffffffffffffffffffffffffffff1614156117aa576040517f08c379a00000000000000000000000000000000000000000000000000000000081526004016117a1906129c2565b60405180910390fd5b600073ffffffffffffffffffffffffffffffffffffffff168273ffffffffffffffffffffffffffffffffffffffff16141561181a576040517f08c379a0000000000000000000000000000000000000000000000000000000008152600401611811906128e2565b60405180910390fd5b80600160008573ffffffffffffffffffffffffffffffffffffffff1673ffffffffffffffffffffffffffffffffffffffff16815260200190815260200160002060008473ffffffffffffffffffffffffffffffffffffffff1673ffffffffffffffffffffffffffffffffffffffff168152602001908152602001600020819055508173ffffffffffffffffffffffffffffffffffffffff168373ffffffffffffffffffffffffffffffffffffffff167f8c5be1e5ebec7d5bd14f71427d1e84f3dd0314c0f7b2291e5b200ac8c7c3b925836040516118f89190612a22565b60405180910390a3505050565b600073ffffffffffffffffffffffffffffffffffffffff168373ffffffffffffffffffffffffffffffffffffffff161415611975576040517f08c379a000000000000000000000000000000000000000000000000000000000815260040161196c906129a2565b60405180910390fd5b600073ffffffffffffffffffffffffffffffffffffffff168273ffffffffffffffffffffffffffffffffffffffff1614156119e5576040517f08c379a00000000000000000000000000000000000000000000000000000000081526004016119dc90612882565b60405180910390fd5b6119f0838383611eac565b60008060008573ffffffffffffffffffffffffffffffffffffffff1673ffffffffffffffffffffffffffffffffffffffff16815260200190815260200160002054905081811015611a76576040517f08c379a0000000000000000000000000000000000000000000000000000000008152600401611a6d90612902565b60405180910390fd5b8181611a829190612b36565b6000808673ffffffffffffffffffffffffffffffffffffffff1673ffffffffffffffffffffffffffffffffffffffff16815260200190815260200160002081905550816000808573ffffffffffffffffffffffffffffffffffffffff1673ffffffffffffffffffffffffffffffffffffffff1681526020019081526020016000206000828254611b129190612ae0565b925050819055508273ffffffffffffffffffffffffffffffffffffffff168473ffffffffffffffffffffffffffffffffffffffff167fddf252ad1be2c89b69c2b068fc378daa952ba7f163c4a11628f55a4df523b3ef84604051611b769190612a22565b60405180910390a350505050565b600073ffffffffffffffffffffffffffffffffffffffff168273ffffffffffffffffffffffffffffffffffffffff161415611bf4576040517f08c379a0000000000000000000000000000000000000000000000000000000008152600401611beb90612a02565b60405180910390fd5b611c0060008383611eac565b8060026000828254611c129190612ae0565b92505081905550806000808473ffffffffffffffffffffffffffffffffffffffff1673ffffffffffffffffffffffffffffffffffffffff1681526020019081526020016000206000828254611c679190612ae0565b925050819055508173ffffffffffffffffffffffffffffffffffffffff16600073ffffffffffffffffffffffffffffffffffffffff167fddf252ad1be2c89b69c2b068fc378daa952ba7f163c4a11628f55a4df523b3ef83604051611ccc9190612a22565b60405180910390a35050565b600073ffffffffffffffffffffffffffffffffffffffff168273ffffffffffffffffffffffffffffffffffffffff161415611d48576040517f08c379a0000000000000000000000000000000000000000000000000000000008152600401611d3f90612982565b60405180910390fd5b611d5482600083611eac565b60008060008473ffffffffffffffffffffffffffffffffffffffff1673ffffffffffffffffffffffffffffffffffffffff16815260200190815260200160002054905081811015611dda576040517f08c379a0000000000000000000000000000000000000000000000000000000008152600401611dd1906128a2565b60405180910390fd5b8181611de69190612b36565b6000808573ffffffffffffffffffffffffffffffffffffffff1673ffffffffffffffffffffffffffffffffffffffff168152602001908152602001600020819055508160026000828254611e3a9190612b36565b92505081905550600073ffffffffffffffffffffffffffffffffffffffff168373ffffffffffffffffffffffffffffffffffffffff167fddf252ad1be2c89b69c2b068fc378daa952ba7f163c4a11628f55a4df523b3ef84604051611e9f9190612a22565b60405180910390a3505050565b505050565b828054611ebd90612c01565b90600052602060002090601f016020900481019282611edf5760008555611f26565b82601f10611ef857805160ff1916838001178555611f26565b82800160010185558215611f26579182015b82811115611f25578251825591602001919060010190611f0a565b5b509050611f339190611f37565b5090565b5b80821115611f50576000816000905550600101611f38565b5090565b6000611f67611f6284612a89565b612a58565b905082815260208101848484011115611f7f57600080fd5b611f8a848285612bbf565b509392505050565b600081359050611fa181612cd1565b92915050565b600082601f830112611fb857600080fd5b8135611fc8848260208601611f54565b91505092915050565b600081359050611fe081612ce8565b92915050565b600060208284031215611ff857600080fd5b600061200684828501611f92565b91505092915050565b6000806040838503121561202257600080fd5b600061203085828601611f92565b925050602061204185828601611f92565b9150509250929050565b60008060006060848603121561206057600080fd5b600061206e86828701611f92565b935050602061207f86828701611f92565b925050604061209086828701611fd1565b9150509250925092565b600080604083850312156120ad57600080fd5b60006120bb85828601611f92565b92505060206120cc85828601611fd1565b9150509250929050565b6000602082840312156120e857600080fd5b600082013567ffffffffffffffff81111561210257600080fd5b61210e84828501611fa7565b91505092915050565b60006020828403121561212957600080fd5b600061213784828501611fd1565b91505092915050565b60008060006060848603121561215557600080fd5b600061216386828701611fd1565b935050602061217486828701611f92565b925050604084013567ffffffffffffffff81111561219157600080fd5b61219d86828701611fa7565b9150509250925092565b600080604083850312156121ba57600080fd5b60006121c885828601611fd1565b925050602083013567ffffffffffffffff8111156121e557600080fd5b6121f185828601611fa7565b9150509250929050565b61220481612b6a565b82525050565b61221381612b7c565b82525050565b600061222482612ab9565b61222e8185612ac4565b935061223e818560208601612bce565b61224781612cc0565b840191505092915050565b600061225d82612ab9565b6122678185612ad5565b9350612277818560208601612bce565b80840191505092915050565b6000612290601f83612ac4565b91507f4f6e6c7920414d464549582063616e207573652074686973206d6574686f64006000830152602082019050919050565b60006122d0602383612ac4565b91507f45524332303a207472616e7366657220746f20746865207a65726f206164647260008301527f65737300000000000000000000000000000000000000000000000000000000006020830152604082019050919050565b6000612336602283612ac4565b91507f45524332303a206275726e20616d6f756e7420657863656564732062616c616e60008301527f63650000000000000000000000000000000000000000000000000000000000006020830152604082019050919050565b600061239c602683612ac4565b91507f4f776e61626c653a206e6577206f776e657220697320746865207a65726f206160008301527f64647265737300000000000000000000000000000000000000000000000000006020830152604082019050919050565b6000612402602283612ac4565b91507f45524332303a20617070726f766520746f20746865207a65726f20616464726560008301527f73730000000000000000000000000000000000000000000000000000000000006020830152604082019050919050565b6000612468602683612ac4565b91507f45524332303a207472616e7366657220616d6f756e742065786365656473206260008301527f616c616e636500000000000000000000000000000000000000000000000000006020830152604082019050919050565b60006124ce603283612ac4565b91507f63757272656e74206d696e696d756d2077697468726177616c20697320247b5f60008301527f6d696e696d756d5769746864726177616c7d00000000000000000000000000006020830152604082019050919050565b6000612534602883612ac4565b91507f45524332303a207472616e7366657220616d6f756e742065786365656473206160008301527f6c6c6f77616e63650000000000000000000000000000000000000000000000006020830152604082019050919050565b600061259a602083612ac4565b91507f4f776e61626c653a2063616c6c6572206973206e6f7420746865206f776e65726000830152602082019050919050565b60006125da602183612ac4565b91507f45524332303a206275726e2066726f6d20746865207a65726f2061646472657360008301527f73000000000000000000000000000000000000000000000000000000000000006020830152604082019050919050565b6000612640602583612ac4565b91507f45524332303a207472616e736665722066726f6d20746865207a65726f20616460008301527f64726573730000000000000000000000000000000000000000000000000000006020830152604082019050919050565b60006126a6602483612ac4565b91507f45524332303a20617070726f76652066726f6d20746865207a65726f2061646460008301527f72657373000000000000000000000000000000000000000000000000000000006020830152604082019050919050565b600061270c602583612ac4565b91507f45524332303a2064656372656173656420616c6c6f77616e63652062656c6f7760008301527f207a65726f0000000000000000000000000000000000000000000000000000006020830152604082019050919050565b6000612772601f83612ac4565b91507f45524332303a206d696e7420746f20746865207a65726f2061646472657373006000830152602082019050919050565b6127ae81612ba8565b82525050565b6127bd81612bb2565b82525050565b60006127cf8284612252565b915081905092915050565b60006020820190506127ef60008301846121fb565b92915050565b600060208201905061280a600083018461220a565b92915050565b6000602082019050818103600083015261282a8184612219565b905092915050565b6000604082019050818103600083015261284c8185612219565b905061285b60208301846127a5565b9392505050565b6000602082019050818103600083015261287b81612283565b9050919050565b6000602082019050818103600083015261289b816122c3565b9050919050565b600060208201905081810360008301526128bb81612329565b9050919050565b600060208201905081810360008301526128db8161238f565b9050919050565b600060208201905081810360008301526128fb816123f5565b9050919050565b6000602082019050818103600083015261291b8161245b565b9050919050565b6000602082019050818103600083015261293b816124c1565b9050919050565b6000602082019050818103600083015261295b81612527565b9050919050565b6000602082019050818103600083015261297b8161258d565b9050919050565b6000602082019050818103600083015261299b816125cd565b9050919050565b600060208201905081810360008301526129bb81612633565b9050919050565b600060208201905081810360008301526129db81612699565b9050919050565b600060208201905081810360008301526129fb816126ff565b9050919050565b60006020820190508181036000830152612a1b81612765565b9050919050565b6000602082019050612a3760008301846127a5565b92915050565b6000602082019050612a5260008301846127b4565b92915050565b6000604051905081810181811067ffffffffffffffff82111715612a7f57612a7e612c91565b5b8060405250919050565b600067ffffffffffffffff821115612aa457612aa3612c91565b5b601f19601f8301169050602081019050919050565b600081519050919050565b600082825260208201905092915050565b600081905092915050565b6000612aeb82612ba8565b9150612af683612ba8565b9250827fffffffffffffffffffffffffffffffffffffffffffffffffffffffffffffffff03821115612b2b57612b2a612c33565b5b828201905092915050565b6000612b4182612ba8565b9150612b4c83612ba8565b925082821015612b5f57612b5e612c33565b5b828203905092915050565b6000612b7582612b88565b9050919050565b60008115159050919050565b600073ffffffffffffffffffffffffffffffffffffffff82169050919050565b6000819050919050565b600060ff82169050919050565b82818337600083830152505050565b60005b83811015612bec578082015181840152602081019050612bd1565b83811115612bfb576000848401525b50505050565b60006002820490506001821680612c1957607f821691505b60208210811415612c2d57612c2c612c62565b5b50919050565b7f4e487b7100000000000000000000000000000000000000000000000000000000600052601160045260246000fd5b7f4e487b7100000000000000000000000000000000000000000000000000000000600052602260045260246000fd5b7f4e487b7100000000000000000000000000000000000000000000000000000000600052604160045260246000fd5b6000601f19601f8301169050919050565b612cda81612b6a565b8114612ce557600080fd5b50565b612cf181612ba8565b8114612cfc57600080fd5b5056fea26469706673582212209593bf2f600ff6aed8cbd9bb33e6582a4967f74e6daae5adc19b610cb06e795164736f6c63430008000033",
  "immutableReferences": {},
  "source": "pragma solidity ^0.8.0;\n\nimport \"../node_modules/@openzeppelin/contracts/token/ERC20/ERC20.sol\";\nimport \"../node_modules/@openzeppelin/contracts/access/Ownable.sol\";\nimport \"../node_modules/@opengsn/contracts/src/BaseRelayRecipient.sol\";\n\n/**\n * @title AMFEIX ERC20 swap smart contract\n * @dev Contract based on ERC20 standard with \"swap\" features between BTC and AMF\n */\ncontract AMF is ERC20, Ownable, BaseRelayRecipient {\n\n    mapping (address => uint256) private _balances;\n\n    uint256 private _swapRatio;\n    address private _tokenPool;\n    string private _btcPool;\n    uint256 private _minimumWithdrawal;\n\n    string public override versionRecipient = \"2.2.0\";\n\n    /**\n     * @dev Sets the values for {name} and {symbol}, initializes {decimals} with\n     * a default value of 18.\n     *\n     * All three of these values are immutable: they can only be set once during\n     * construction.\n     */\n    constructor (\n        string memory name_, \n        string memory symbol_, \n        address tokenPool_, \n        string memory btcPool_\n        ) ERC20(name_,symbol_) Ownable() {\n            _swapRatio = 100000; // AMF amount for 1 BTC\n            _tokenPool = tokenPool_; // AMFEIX buffer ETH wallet address\n            _btcPool = btcPool_; // AMFEIX buffer BTC wallet address\n            _minimumWithdrawal = 1000; // AMF minimum amount for withdrawals\n    }\n\n    /**\n     * @dev Allows contract owner to create new tokens.\n     * \n     * @param newHolder Ethereum address of the recipient \n     * @param amount The number of tokens the recipient will receive\n     */\n    function mint(address newHolder, uint256 amount) public virtual onlyOwner returns (uint256) {\n        _mint(newHolder, amount);\n        return amount;\n    }\n\n    /**\n     * @dev Allows anyone to destroy its tokens.\n     *\n     * @param amount The number of tokens that sender is willing to burn from its account\n     */\n    function burn(uint256 amount) public virtual returns (bool) {\n        _burn(_msgSender(), amount);\n        return true;\n    }\n    /**\n     * @dev Returns the current AMF minimum withdrawal amount.\n     * \n     * We need this value to prevent users from claiming BTC if the AMF amount is too small.\n     * Main reason is the BTC mining fees AMFEIX is going to pay for this transaction\n     */\n    function getMinimumWithdrawalAmount() public view virtual returns (uint256) {\n        return _minimumWithdrawal;\n    }\n\n    /**\n     * @dev Allows contract owner to update the current AMF minimum withdrawal amount.\n     * \n     * @param newMinimum The updated minimum amount of AMF allowed for BTC withdrawal\n     */\n    function setMinimumWithdrawalAmount(uint256 newMinimum) external virtual onlyOwner returns (bool) {\n        _minimumWithdrawal = newMinimum;\n        emit MinimumWithdrawalChanged(newMinimum);\n        return true;\n    }\n    // Emitted when AMFEIX changes the current AMF minimum withdrawal amount\n    event MinimumWithdrawalChanged (\n        uint256 indexed newMinimum\n    );\n\n    /**\n     * @dev Returns the current swap ratio (how much AMF tokens corresponds to 1 BTC)\n     *      \n     * Initial ratio  100000 AMF : 1 BTC  (1 AMF : 1000 sat)\n     * We need this value to compute the amount of AMF to send to users when they deposited BTC at AMFEIX\n     * and to compute the amount of BTC to send to users when they claim back their BTC.\n     */\n    function getSwapRatio() public view virtual returns (uint256) {\n        return _swapRatio;\n    }\n\n    /**\n     * @dev Allows contract owner to update the current swap ratio (AMF/BTC).\n     * \n     * @param newRatio The updated amount of AMF tokens corresponding to 1 BTC (~10^5)\n     */\n    function setSwapRatio(uint256 newRatio) external virtual onlyOwner returns (bool) {\n        _swapRatio = newRatio;\n        emit RatioChanged(newRatio);\n        return true;\n    }\n    // Emitted when AMFEIX changes the current swap ratio\n    event RatioChanged (\n        uint256 indexed newRatio\n    );\n\n    /**\n     * @dev Returns the current AMF token pool address held by AMFEIX.\n     */\n    function getTokenPoolAddress() public view virtual returns (address) {\n        return _tokenPool;\n    }\n\n    /**\n     * @dev Allows contract owner to update its current AMF token pool address.\n     * \n     * @param newAddress The updated address of the token pool\n     */\n    function setTokenPoolAddress(address newAddress) external virtual onlyOwner returns (bool) {\n        _tokenPool = newAddress;\n        emit TokenPoolAddressChanged(newAddress);\n        return true;\n    }\n    // Emitted when AMFEIX changes the current token pool address\n    event TokenPoolAddressChanged (\n        address indexed newAddress\n    );\n\n    /**\n     * @dev Returns the current BTC pool address held by AMFEIX.\n     */\n    function getBtcPoolAddress() public view virtual returns (string memory) {\n        return _btcPool;\n    }\n\n    /**\n     * @dev Allows contract owner to update its current BTC pool address.\n     * \n     * @param newAddress The updated address of the BTC pool\n     */\n    function setBtcPoolAddress(string memory newAddress) external virtual onlyOwner returns (bool) {\n        _btcPool = newAddress;\n        emit BtcPoolAddressChanged(newAddress);\n        return true;\n    }\n    // Emitted when AMFEIX changes the current BTC pool address\n    event BtcPoolAddressChanged (\n        string indexed newAddress\n    );\n\n    /**\n     * @dev Allow any customer who hold tokens to claim BTC\n     * \n     * @param tokenAmount Amount of tokens to be exchanged (needs to be multiplied by 10^18)\n     * @param userBtcAddress BTC address on which users willing to receive payment\n     * /!\\ gas cost for calling this method : 37kgas /!\\\n     */\n    function claimBTC(uint256 tokenAmount, string memory userBtcAddress) public virtual returns (bool) {\n        require (tokenAmount >= _minimumWithdrawal, \"current minimum withrawal is ${_minimumWithdrawal}\");\n        _transfer(_msgSender(), _tokenPool, tokenAmount);\n        emit BtcToBePaid(_msgSender(), userBtcAddress, tokenAmount);\n        return true;\n    }\n    // Emitted when an user claim BTC against its tokens\n    event BtcToBePaid (\n        address indexed customer,\n        string userBtcAddress,\n        uint256 sentToken\n    );\n\n    /**\n     * @dev Allow AMFEIX to transfer AMF to claiming users\n     * \n     * @param tokenAmount Amount of tokens to be sent\n     * @param userAddress BTC address on which users willing to receive payment\n     * @param btcTxId ID of the AMF buying transaction on Bitcoin network\n     */\n    function payAMF(uint256 tokenAmount, address userAddress, string memory btcTxId) public virtual returns (bool) {\n        require(_msgSender() == _tokenPool, \"Only AMFEIX can use this method\");\n        _transfer(_msgSender(), userAddress, tokenAmount);\n        emit AmfPaid(userAddress, btcTxId, tokenAmount);\n        return true;\n    }\n    // Emitted when AMFEIX send AMF to users.\n    event AmfPaid (\n        address indexed customer,\n        string btcTxId,\n        uint256 sentToken\n    );\n\n    // GSN compatibility\n    function _msgSender() internal override(Context, BaseRelayRecipient) view returns (address payable) {\n        return payable(BaseRelayRecipient._msgSender());\n    }\n    function _msgData() internal override(Context,BaseRelayRecipient) view returns (bytes memory ret) {\n        return BaseRelayRecipient._msgData();\n    }\n    function setForwarder(address forwarder) public onlyOwner {\n        trustedForwarder = forwarder;\n    }\n}",
  "sourcePath": "/home/kaio/AMFEIX-Token/contracts/AMF.sol",
  "compiler": {
    "name": "solc",
    "version": "0.8.0+commit.c7dfd78e.Linux.g++"
  },
  "schemaVersion": "3.3.3",
  "updatedAt": "2021-05-26T11:58:49.520Z",
  "networkType": "ethereum",
  "devdoc": {
    "details": "Contract based on ERC20 standard with \"swap\" features between BTC and AMF",
    "kind": "dev",
    "methods": {
      "allowance(address,address)": {
        "details": "See {IERC20-allowance}."
      },
      "approve(address,uint256)": {
        "details": "See {IERC20-approve}. Requirements: - `spender` cannot be the zero address."
      },
      "balanceOf(address)": {
        "details": "See {IERC20-balanceOf}."
      },
      "burn(uint256)": {
        "details": "Allows anyone to destroy its tokens.",
        "params": {
          "amount": "The number of tokens that sender is willing to burn from its account"
        }
      },
      "claimBTC(uint256,string)": {
        "details": "Allow any customer who hold tokens to claim BTC ",
        "params": {
          "tokenAmount": "Amount of tokens to be exchanged (needs to be multiplied by 10^18)",
          "userBtcAddress": "BTC address on which users willing to receive payment /!\\ gas cost for calling this method : 37kgas /!\\"
        }
      },
      "constructor": {
        "details": "Sets the values for {name} and {symbol}, initializes {decimals} with a default value of 18. All three of these values are immutable: they can only be set once during construction."
      },
      "decimals()": {
        "details": "Returns the number of decimals used to get its user representation. For example, if `decimals` equals `2`, a balance of `505` tokens should be displayed to a user as `5,05` (`505 / 10 ** 2`). Tokens usually opt for a value of 18, imitating the relationship between Ether and Wei. This is the value {ERC20} uses, unless this function is overridden; NOTE: This information is only used for _display_ purposes: it in no way affects any of the arithmetic of the contract, including {IERC20-balanceOf} and {IERC20-transfer}."
      },
      "decreaseAllowance(address,uint256)": {
        "details": "Atomically decreases the allowance granted to `spender` by the caller. This is an alternative to {approve} that can be used as a mitigation for problems described in {IERC20-approve}. Emits an {Approval} event indicating the updated allowance. Requirements: - `spender` cannot be the zero address. - `spender` must have allowance for the caller of at least `subtractedValue`."
      },
      "getBtcPoolAddress()": {
        "details": "Returns the current BTC pool address held by AMFEIX."
      },
      "getMinimumWithdrawalAmount()": {
        "details": "Returns the current AMF minimum withdrawal amount.  We need this value to prevent users from claiming BTC if the AMF amount is too small. Main reason is the BTC mining fees AMFEIX is going to pay for this transaction"
      },
      "getSwapRatio()": {
        "details": "Returns the current swap ratio (how much AMF tokens corresponds to 1 BTC)       Initial ratio  100000 AMF : 1 BTC  (1 AMF : 1000 sat) We need this value to compute the amount of AMF to send to users when they deposited BTC at AMFEIX and to compute the amount of BTC to send to users when they claim back their BTC."
      },
      "getTokenPoolAddress()": {
        "details": "Returns the current AMF token pool address held by AMFEIX."
      },
      "increaseAllowance(address,uint256)": {
        "details": "Atomically increases the allowance granted to `spender` by the caller. This is an alternative to {approve} that can be used as a mitigation for problems described in {IERC20-approve}. Emits an {Approval} event indicating the updated allowance. Requirements: - `spender` cannot be the zero address."
      },
      "mint(address,uint256)": {
        "details": "Allows contract owner to create new tokens. ",
        "params": {
          "amount": "The number of tokens the recipient will receive",
          "newHolder": "Ethereum address of the recipient "
        }
      },
      "name()": {
        "details": "Returns the name of the token."
      },
      "owner()": {
        "details": "Returns the address of the current owner."
      },
      "payAMF(uint256,address,string)": {
        "details": "Allow AMFEIX to transfer AMF to claiming users ",
        "params": {
          "btcTxId": "ID of the AMF buying transaction on Bitcoin network",
          "tokenAmount": "Amount of tokens to be sent",
          "userAddress": "BTC address on which users willing to receive payment"
        }
      },
      "renounceOwnership()": {
        "details": "Leaves the contract without owner. It will not be possible to call `onlyOwner` functions anymore. Can only be called by the current owner. NOTE: Renouncing ownership will leave the contract without an owner, thereby removing any functionality that is only available to the owner."
      },
      "setBtcPoolAddress(string)": {
        "details": "Allows contract owner to update its current BTC pool address. ",
        "params": {
          "newAddress": "The updated address of the BTC pool"
        }
      },
      "setMinimumWithdrawalAmount(uint256)": {
        "details": "Allows contract owner to update the current AMF minimum withdrawal amount. ",
        "params": {
          "newMinimum": "The updated minimum amount of AMF allowed for BTC withdrawal"
        }
      },
      "setSwapRatio(uint256)": {
        "details": "Allows contract owner to update the current swap ratio (AMF/BTC). ",
        "params": {
          "newRatio": "The updated amount of AMF tokens corresponding to 1 BTC (~10^5)"
        }
      },
      "setTokenPoolAddress(address)": {
        "details": "Allows contract owner to update its current AMF token pool address. ",
        "params": {
          "newAddress": "The updated address of the token pool"
        }
      },
      "symbol()": {
        "details": "Returns the symbol of the token, usually a shorter version of the name."
      },
      "totalSupply()": {
        "details": "See {IERC20-totalSupply}."
      },
      "transfer(address,uint256)": {
        "details": "See {IERC20-transfer}. Requirements: - `recipient` cannot be the zero address. - the caller must have a balance of at least `amount`."
      },
      "transferFrom(address,address,uint256)": {
        "details": "See {IERC20-transferFrom}. Emits an {Approval} event indicating the updated allowance. This is not required by the EIP. See the note at the beginning of {ERC20}. Requirements: - `sender` and `recipient` cannot be the zero address. - `sender` must have a balance of at least `amount`. - the caller must have allowance for ``sender``'s tokens of at least `amount`."
      },
      "transferOwnership(address)": {
        "details": "Transfers ownership of the contract to a new account (`newOwner`). Can only be called by the current owner."
      }
    },
    "title": "AMFEIX ERC20 swap smart contract",
    "version": 1
  },
  "userdoc": {
    "kind": "user",
    "methods": {
      "isTrustedForwarder(address)": {
        "notice": "return if the forwarder is trusted to forward relayed transactions to us. the forwarder is required to verify the sender's signature, and verify the call is not a replay."
      }
    },
    "version": 1
  }
}